:1000000012C02CC02BC02AC029C028C027C026C0BF
:1000100025C024C023C022C021C020C01FC01EC0D4
:100020001DC01CC01BC011241FBECFE5D4E0DEBF25
:10003000CDBF10E0A0E6B0E0E4EFF0E002C0059034
:100040000D92A036B107D9F710E0A0E6B0E001C0EC
:100050001D92A036B107E1F70CD04AC0D1CF2AEFEC
:1000600030E004C0F9013197F1F701970097D1F71B
:1000700008950F931F938FEF87BB84BB15BA18BAEF
:1000800041E10EE12AEF30E01FE1BDE1AAE07BE1B2
:1000900067E15FE048BB05BB8BE090E0F901319779
:1000A000F1F70197D9F718BBB5BB8BE090E0F901E8
:1000B0003197F1F70197D9F7A8BB75BB8BE090E0BA
:1000C000F9013197F1F70197D9F748BB65BB8BE090
:1000D00090E0F9013197F1F70197D9F748BB55BB8B
:1000E0008BE090E0F9013197F1F70197D9F7D2CF82
:0400F000F894FFCFB2
:00000001FF
