:100000000C942A000C9447000C9447000C94470071
:100010000C9447000C9447000C9447000C94470044
:100020000C9447000C9447000C9447000C94470034
:100030000C9447000C9447000C9447000C94470024
:100040000C9447000C9447000C9447000C94470014
:100050000C94470011241FBECFE5D8E0DEBFCDBF12
:1000600010E0A0E6B0E0E8EDF0E002C005900D92EF
:10007000A036B107D9F710E0A0E6B0E001C01D92AC
:10008000A036B107E1F70E9454000C946A000C946A
:1000900000002AEF30E004C0F9013197F1F7019731
:1000A0000097D1F7089508958FEF81BB4FEF2AEFA6
:1000B00030E042BB84EF91E0F9013197F1F701970D
:1000C000D9F712BA84EF91E0F9013197F1F701976E
:0800D000D9F7EFCFF894FFCF40
:00000001FF
