:1000000012C02CC02BC02AC029C028C027C026C0BF
:1000100025C024C023C022C021C020C01FC01EC0D4
:100020001DC01CC01BC011241FBECFE5D4E0DEBF25
:10003000CDBF10E0A0E6B0E0ECECF0E002C005902F
:100040000D92AA36B107D9F710E0AAE6B0E001C0D8
:100050001D92AC36B107E1F70CD036C0D1CF2AEFF4
:1000600030E004C0F9013197F1F701970097D1F71B
:1000700008958FEF87BB84BB15BA81E088BB80E011
:1000800090E061E070E04AEF50E09C01F901EE0F72
:10009000FF1FE05AFF4F808185BBCB01022E02C0BB
:1000A000880F991F0A94E2F788BB8AE090E0FA0172
:1000B0003197F1F70197D9F7C901019620E030E0B7
:0C00C0008530910510F3E2CFF894FFCFDB
:0A00CC0015001300170013001500C3
:00000001FF
