:1000000012C02CC02BC02AC029C028C027C026C0BF
:1000100025C024C023C022C021C020C01FC01EC0D4
:100020001DC01CC01BC011241FBECFE5D4E0DEBF25
:10003000CDBF10E0A0E6B0E0E8E3F1E002C005903B
:100040000D92A036B107D9F710E0A0E6B0E001C0EC
:100050001D92A936B107E1F725D06CC0D1CF2AEFA8
:1000600030E004C0F9013197F1F701970097D1F71B
:100070000895382F6AE045D0292F90936800832F88
:100080006AE03FD0992787FD909534E0880F991F4B
:100090003A95E1F780936000282B209364008091CB
:1000A000620008950F931F93CF93DF938FEF87BB69
:1000B00084BB81BB15BA10E020E000E0CAEFD0E0BD
:1000C00088EE93E0FE013197F1F70197D9F72F5FA2
:1000D0002C339CF01F5F1C3354F00F5F08310CF081
:1000E00000E0802FC6DF8091620082BB10E0812F8C
:1000F000C0DF8091620088BB20E085B3817085BB42
:10010000DFCF87FB082E062687FD819567FD619569
:1001100005D00EF4919507FC81950895991B79E01F
:1001200004C0991F961708F0961B881F7A95C9F787
:0801300080950895F894FFCFBB
:00000001FF
