:1000000012C02CC02BC02AC029C028C027C026C0BF
:1000100025C024C023C022C021C020C01FC01EC0D4
:100020001DC01CC01BC011241FBECFE5D4E0DEBF25
:10003000CDBF10E0A0E6B0E0E2EBF0E002C005903A
:100040000D92A037B107D9F710E0A0E7B0E001C0EA
:100050001D92A237B107E1F70DD029C0D1CF2AEF09
:1000600030E004C0F9013197F1F701970097D1F71B
:10007000089508958FEF87BB88BB20917000309161
:1000800071004AEF50E0F901E05AFF4F808188BBD0
:100090002F5F3F4F2031310510F020E030E084EF3A
:1000A00091E0FA013197F1F7019769F3FACFF894EB
:0200B000FFCF80
:1000B2003F065B4F666D7D077F6F777C395E7B7194
:00000001FF
