:1000000012C02CC02BC02AC029C028C027C026C0BF
:1000100025C024C023C022C021C020C01FC01EC0D4
:100020001DC01CC01BC011241FBECFE5D4E0DEBF25
:10003000CDBF10E0A0E6B0E0E0EBF0E002C005903C
:100040000D92A036B107D9F710E0A0E6B0E001C0EC
:100050001D92A236B107E1F70CD028C0D1CF2AEF0C
:1000600030E004C0F9013197F1F701970097D1F71B
:1000700008958FEF87BB68E070E04AEF50E020E022
:1000800030E0CB01022E02C0959587950A94E2F7E5
:1000900088BB84E690E0FA013197F1F70197D9F730
:1000A0002F5F3F4F2330310551F3EBCFF894FFCF53
:00000001FF
