:1000000012C02CC02BC02AC029C028C027C026C0BF
:1000100025C024C023C022C021C020C01FC01EC0D4
:100020001DC01CC01BC011241FBECFE5D4E0DEBF25
:10003000CDBF10E0A0E6B0E0EEEDF1E002C005902B
:100040000D92AE37B107D9F710E0AEE7B0E001C0CE
:100050001D92AE37B107E1F71FD0C0C0D1CF8AB132
:1000600088618AB980B5866880BD89E189B910BC8C
:1000700008955D9BFECF8CB908955F9BFECF8CB138
:1000800099270895FC0104C05D9BFECF8CB9319681
:1000900080818823C9F70895CF93DF93CDB7DEB76A
:1000A0002E970FB6F894DEBF0FBECDBFDE011196BE
:1000B000E0E6F0E08EE001900D928150E1F717BA92
:1000C000CEDF20E137E2E9E1F0E0CF010197F1F77F
:1000D00021503040D1F7CE010196D4DF8FEF88BB9D
:1000E000B099FECFC19A40E020E030E0EAEFF0E0C6
:1000F00059EEB0992160220F331FCF010197F1F71C
:10010000852F8A95F1F74F5F4E3099F736FD04C081
:1001100035FF02C034FDE2CF40E050E0E0E371E3A0
:1001200060E236FF04C05D9BFECFECB903C05D9B6F
:10013000FECF7CB9842F8150823010F0473019F403
:100140005D9BFECF6CB94F5F5F4F4E30510519F08C
:10015000220F331FE6CF5D9BFECF8DE08CB95D9BF8
:10016000FECF8AE08CB920E137E2E9E1F0E0CF018F
:100170000197F1F72150304009F4B0CFF8CFCF9379
:10018000DF93CDB7DEB760970FB6F894DEBF0FBE32
:10019000CDBF982FDE011196EEE6F0E080E10190F0
:1001A0000D928150E1F7892F82958F70FE01E80F43
:1001B000F11D81815D9BFECF8CB99F70FE01E90F1F
:1001C000F11D81815D9BFECF8CB960960FB6F894CE
:0E01D000DEBF0FBECDBFDF91CF910895FFCFF0
:1001DE004920616D20776F726B696E672E0030312A
:0E01EE003233343536373839414243444546C2
:00000001FF
