:1000000012C02CC02BC02AC029C028C027C026C0BF
:1000100025C024C023C022C021C020C01FC01EC0D4
:100020001DC01CC01BC011241FBECFE5D4E0DEBF25
:10003000CDBF10E0A0E6B0E0E8ECF0E002C0059033
:100040000D92A036B107D9F710E0A0E6B0E001C0EC
:100050001D92A036B107E1F70CD034C0D1CF2AEF02
:1000600030E004C0F9013197F1F701970097D1F71B
:1000700008958FEF87BB7AEA2AEF30E069E055E018
:1000800046E078BB84EC99E0F9013197F1F70197EC
:10009000D9F768BB88E795E0F9013197F1F7019747
:1000A000D9F758BB84EC99E0F9013197F1F7019742
:1000B000D9F748BB88E795E0F9013197F1F7019747
:0800C000D9F7DFCFF894FFCF60
:00000001FF
