:1000000012C02CC02BC02AC029C028C027C026C0BF
:1000100025C024C023C022C021C020C01FC01EC0D4
:100020001DC01CC01BC011241FBECFE5D4E0DEBF25
:10003000CDBF10E0A0E6B0E0EAEBF0E002C0059032
:100040000D92AA36B107D9F710E0AAE6B0E001C0D8
:100050001D92AC36B107E1F70CD02DC0D1CF2AEFFD
:1000600030E004C0F9013197F1F701970097D1F71B
:1000700008958FEF87BB84BB85BB81E088BB80E0A0
:1000800090E041E050E09C01F901EE0FFF1FE05AC3
:10009000FF4F808185BBCA01022E02C0880F991FC5
:1000A0000A94E2F788BBC901019620E030E0853070
:0A00B000910548F3E9CFF894FFCF63
:0A00BA0015001300170013001500D5
:00000001FF
