:1000000012C02CC02BC02AC029C028C027C026C0BF
:1000100025C024C023C022C021C020C01FC01EC0D4
:100020001DC01CC01BC011241FBECFE5D4E0DEBF25
:10003000CDBF10E0A0E6B0E0EAEFF0E002C005902E
:100040000D92A036B107D9F710E0A0E6B0E001C0EC
:100050001D92A236B107E1F736D04DC0D1CF2AEFBD
:1000600030E004C0F9013197F1F701970097D1F71B
:1000700008952091600030916100253031059CF495
:1000800081E290E04AEF50E0FA013197F1F70197F1
:10009000D9F785B3880F85BB2F5F3F4F3093610041
:1000A000209360000895109261001092600081E238
:1000B00090E02AEF30E0F9013197F1F70197D9F795
:1000C00081E085BB0895FF920F931F938FEF87BB4D
:1000D00084BB81E085BB18BA1EE085E1F82E0BE1F8
:1000E00018BBC7DF18BBC5DF18BAC3DFF8BAC1DF5A
:0A00F00008BBBFDFF5CFF894FFCF87
:00000001FF
