:1000000012C02CC02BC02AC029C028C027C026C0BF
:1000100025C024C023C022C021C020C01FC01EC0D4
:100020001DC01CC01BC011241FBECFE5D4E0DEBF25
:10003000CDBF10E0A0E6B0E0E0E0F3E002C0059044
:100040000D92AA3AB107D9F710E0AAEAB0E001C0D0
:100050001D92AA3AB107E1F7B6D050C1D1CF2AEF2D
:1000600030E004C0F9013197F1F701970097D1F71B
:10007000089531E004C0232F2A95F1F701970097E6
:10008000D1F70895AF92BF92CF92DF92EF92FF9295
:100090000F931F93CF93DF93EC01882777FD809513
:1000A000982F28EE33E040E050E0E2D05B016C0195
:1000B000CE01880F991F7C010027F7FC0095102FB7
:1000C00020E030E040E050E07FEF61E016C078BB18
:1000D000FE01CE0104C0A62FAA95F1F70197009763
:1000E000D1F718BA04C0862F8A95F1F73197309767
:1000F000D1F72E0D3F1D401F511F2A153B054C0502
:100100005D052CF3DF91CF911F910F91FF90EF9040
:10011000DF90CF90BF90AF9008959F92AF92BF9223
:10012000CF92DF92EF92FF920F931F93DF93CF93C3
:10013000CDB7DEB768970FB6F894DEBF0FBECDBF60
:10014000982E5B01DE011196E2EAF0E088E0019072
:100150000D928150E1F7DE011996E2E9F0E080E1CD
:1001600001900D928150E1F77E010894E11CF11C91
:100170008E01075F1F4F6801F7018081891549F4DF
:10018000F8018081918160E170E091D0CB01B501EF
:1001900079DF0894E11CF11C0E5F1F4FEC14FD0485
:1001A00059F768960FB6F894DEBF0FBECDBFCF915A
:1001B000DF911F910F91FF90EF90DF90CF90BF9054
:1001C000AF909F9008950F931F93CF93DF938FEF7E
:1001D00087BBC0E0D0E00AEF10E03FC0FE01EC5961
:1001E000FF4FE081DE01AA0FBB1F409162005091DA
:1001F0006300E032A9F4AC58BF4F8D919C91849F6D
:100200009001859F300D949F300D112405C0C801C9
:100210000197F1F72150304021153105C1F70DC08C
:10022000AC58BF4F8D919C91849FB001859F700DFC
:10023000949F700D11248E2F70DF80916200909139
:10024000630062E070E033D0CB0104C0F801319765
:10025000F1F701970097D1F7219680916000909176
:100260006100C817D9070CF4B9CFC0E0D0E0F9CFCE
:10027000629FD001739FF001829FE00DF11D649F8A
:10028000E00DF11D929FF00D839FF00D749FF00D16
:10029000659FF00D9927729FB00DE11DF91F639FB7
:1002A000B00DE11DF91FBD01CF011124089597FB89
:1002B000092E07260AD077FD04D00CD006D00020E6
:1002C0001AF4709561957F4F0895F6F79095819592
:1002D0009F4F0895AA1BBB1B51E107C0AA1FBB1F5C
:1002E000A617B70710F0A61BB70B881F991F5A95C2
:1002F000A9F780959095BC01CD010895F894FFCFA2
:100300000F003200636367676161676666656564F5
:1003100064632000010001000100010001000100F0
:1003200002000100010001000100010001000200C3
:1003300004007B07A406EF059805FB047004F60390
:0A034000BC036364656667616243F5
:00000001FF
