:1000000012C02CC02BC02AC029C028C027C026C0BF
:1000100025C024C023C022C021C020C01FC01EC0D4
:100020001DC01CC01BC011241FBECFE5D4E0DEBF25
:10003000CDBF10E0A0E6B0E0E4E0F3E002C0059040
:100040000D92A039B107D9F710E0A0E9B0E001C0E6
:100050001D92A139B107E1F7DFD052C1D1CF2AEF0C
:1000600030E004C0F9013197F1F701970097D1F71B
:100070000895282F80EF81BB8FE182BB0000000034
:10008000969A0000000080B3969800000000969AAF
:1000900000000000969882EE94E00197F1F70000CE
:1000A000000012BA8FEF81BB822F82958F709091E2
:1000B0009000911180620000000082BB969A0000BF
:1000C00000009698822F8F709111806200000000CE
:1000D00082BB969A0000000096988CEB92E02AEF83
:1000E00030E0F9013197F1F70197D9F708951092AF
:1000F0009000BFDF089588E2FADF81E0F8DF08951D
:100100001F93CF93DF93EC016130710519F4842FB5
:10011000805802C0842F8054EADF11E004C0219689
:1001200010939000A6DF88818823C9F7DF91CF91D3
:100130001F9108950F931F93CF93DF93EB01877067
:10014000880F880F880F805CD2DF10E001E0899172
:10015000009390008EDF1F5F1830C9F7DF91CF91B9
:100160001F910F9108952AEF30E004C0F9013197F3
:10017000F1F701970097D1F7089586B1876086B9A6
:100180003E9A3D9A379A369A089597B1987F97B9D3
:1001900097B1982B97B9369A3699FECF85B10895C5
:1001A000FF920F931F93DF93CF93CDB7DEB7619785
:1001B0000FB6F894DEBF0FBECDBF982FDE011196AB
:1001C000EFE7F0E080E101900D928150E1F7892F97
:1001D00082958F708E010F5F1F4FF801E80FF11DA0
:1001E0008081FF24F394F0929000998B42DF9989EB
:1001F0009F70090F111DF8018081F092900039DF86
:1002000061960FB6F894DEBF0FBECDBFCF91DF91E0
:100210001F910F91FF900895CF92DF92FF920F935D
:100220001F93DF93CF93CDB7DEB76F970FB6F894D8
:10023000DEBF0FBECDBFDE015096E0E6F0E080E10C
:1002400001900D928150E1F7DE011196E0E7F0E0B8
:100250008FE001900D928150E1F786B1876086B9F9
:100260003E9A3D9A379A369A46DF40E050E061E088
:1002700070E0CE01409644DF40E050E062E070E084
:10028000CE0101963DDF80E395E72AEF30E0F901EA
:100290003197F1F70197D9F780E829DF00E0FF24D3
:1002A000F3948AEFC82ED12C87B1887F87B987B1A4
:1002B000802B87B9369A3699FECF15B1F09290000F
:1002C000802F805DD6DEF09290008AE3D2DE812F0F
:1002D00067DFF092900080E2CCDE0F5F063020F006
:1002E00080E805DF00E004C0033011F480ECFFDE9D
:1002F00088EE93E0F6013197F1F70197A9F2FACF72
:04030000F894FFCF9F
:100304006B696E692C73756B752C62617272750002
:10031400736E6568612C207265766174686900305B
:100324003132333435363738394142434445460057
:00000001FF
