:1000000097C0B1C0B0C0AFC0AEC0ADC0ACC0ABC097
:10001000AAC0A9C0A8C0A7C0A6C0A5C0A4C0A3C0AC
:10002000A2C0A1C0A0C0696E6600494E46006E61C4
:100030006E004E414E0000407A10F35A00A0724EFE
:1000400018090010A5D4E80000E87648170000E47D
:100050000B54020000CA9A3B000000E1F5050000C5
:1000600080969800000040420F000000A08601002A
:100070000000102700000000E803000000006400FA
:10008000000000000A000000000001000000000065
:100090002C76D888DC674F0823DFC1DFAE59E1B189
:1000A000B796E5E3E453C63AE651997696E8E6C298
:1000B0008426EB898C9B62ED407C6FFCEFBC9C9F9F
:1000C00040F2BAA56FA5F490055A2AF75C936B6CC1
:1000D000F9676DC11BFCE0E40D47FEF520E6B500B5
:1000E000D0ED902E0300943577050080841E080023
:1000F00000204E0A000000C80C333333330F986ED3
:1001000012831141EF8D2114893BE65516CFFEE68F
:10011000DB18D1844B381BF77C1D901DA4BBE42455
:10012000203284725E228100C9F124ECA1E53D27D2
:1001300011241FBECFE5D4E0DEBFCDBF10E0A0E6A6
:10014000B0E0E0E3FAE002C005900D92A037B107FD
:10015000D9F710E0A0E7B0E001C01D92A137B107C8
:10016000E1F788D163C44CCF4F925F926F927F9238
:100170008F929F92AF92BF92CF92DF92EF92FF92B7
:100180000F931F93CF93DF935B016C01EA0197FFFD
:1001900002C08DE28993A114B104C104D10419F401
:1001A00080E389933EC021E0622E712C44245524C3
:1001B000E12C9AECF92E9AE9092F9BE3192FC6013D
:1001C000B501A8019701AAD34901121613066CF4D0
:1001D000B901882777FD8095982FA80197017FD3D3
:1001E000A61AB70AC80AD90A03C04114510431F04B
:1001F000882D805D899381E0482E512C0894611CE4
:10020000711C8BE06816710461F0C801B7012AE027
:1002100030E040E050E082D3C901DA017C018D0179
:10022000CECF1882DF91CF911F910F91FF90EF9069
:10023000DF90CF90BF90AF909F908F907F906F9006
:100240005F904F900895282F80EF81BB8FE182BB94
:1002500000000000969A0000000080B3969800000D
:100260000000969A00000000969882EE94E00197B4
:10027000F1F70000000012BA8FEF81BB822F829548
:100280008F7090917000911180620000000082BB1D
:10029000969A000000009698822F8F7091118062CC
:1002A0000000000082BB969A000000009698089516
:1002B00010927000C8DF089512BA8FEF81BB84EDF1
:1002C00090E30197F1F783E082BB22EE34E0F9017D
:1002D0003197F1F782BBF9013197F1F782BBC90180
:1002E0000197F1F782E082BBC9010197F1F788E23B
:1002F000DFDF88E0DDDF8CE0DBDF81E0D9DF86E077
:10030000D7DF08951F93CF93DF93EC016130710520
:1003100019F4842F805802C0842F8054C9DF11E063
:1003200004C02196109370008EDF88818823C9F75E
:10033000DF91CF911F910895CF92DF92EF92FF92BC
:100340000F931F93DF93CF93CDB7DEB72F970FB6E1
:10035000F894DEBF0FBECDBF6A0179018E010F5F39
:100360001F4FA80101DFA701B601C801CBDF2F96FF
:100370000FB6F894DEBF0FBECDBFCF91DF911F91B6
:100380000F91FF90EF90DF90CF9008950F931F9300
:10039000CF93DF93EB018770880F880F880F805C05
:1003A00087DF10E001E08991009370004CDF1F5F50
:1003B0001830C9F7DF91CF911F910F910895AF9237
:1003C000BF92CF92DF92EF92FF920F93DF93CF9382
:1003D000CDB7DEB72F970FB6F894DEBF0FBECDBFF7
:1003E0005A01690103E024E07E010894E11CF11C3C
:1003F000A701E5D0A601B501C70184DF2F960FB68E
:10040000F894DEBF0FBECDBFCF91DF910F91FF906B
:10041000EF90DF90CF90BF90AF900895CF92DF9292
:10042000EF92FF920F931F93DF93CF93CDB7DEB779
:100430002F970FB6F894DEBF0FBECDBF6B017A01C8
:100440004AE050E08E010F5F1F4FB80119D2A7019B
:10045000B601C80157DF2F960FB6F894DEBF0FBE66
:10046000CDBFCF91DF911F910F91FF90EF90DF9063
:10047000CF9008952F923F924F925F926F927F920A
:100480008F929F92AF92BF92CF92DF92EF92FF92A4
:100490000F931F93DF93CF93CDB7DEB760970FB65F
:1004A000F894DEBF0FBECDBFDE011396E0E6F0E0AC
:1004B0008EE001900D928150E1F780916E00909155
:1004C0006F009A83898317BAF7DE80E197E229E10A
:1004D00030E0F9013197F1F70197D9F741E050E0A9
:1004E00061E070E0CE0103960DDF22242A94AAEF8A
:1004F0004A2E512CF9EE3F2EE4EFCE2EE1E0DE2E17
:100500003E010894611C711C79E1872E912C60E5F5
:10051000A62E63ECB62E28BAB099FECFC19A40E061
:1005200020E030E0B0992160220F331FC201019713
:10053000F1F7832D8A95F1F74F5F4E3099F736FD2D
:1005400006C0C901807090738050904321F37901F7
:1005500000E010E0F6FE0AC0A80161E070E080E073
:1005600090E05CDFC6010197F1F706C0A80161E0E9
:1005700070E081E090E052DFC6010197F1F7802F33
:100580008150823010F0073029F4A80161E070E05A
:10059000C301B8DE0F5F1F4F0E30110519F0EE0CCE
:1005A000FF1CD8CF80E29EE4F4013197F1F7019768
:1005B000D9F781E07DDEC5010197F1F7ACCFA0E06E
:1005C000B0E0E4EEF2E006C27A01D02E122F28301D
:1005D00008F017E000E0212FA70173D0682FF70182
:1005E0005191252F50FF04C053FD02C08DE209C078
:1005F000D1FE02C08BE205C0D0FC02C0C70104C01E
:1006000080E2D7018C93CF01482F392F23FF03C0FD
:100610006EE270E004C022FF0AC066E270E0D2FE23
:1006200002C06C5F7F4F842F932F23D145C0F70109
:100630002181DC012D93213309F05F7E1123A9F084
:10064000E701842F932FFC01912F2EE28A812183D1
:10065000915021963196282F9923C1F71150812F5F
:1006600090E00196A80FB91F2D93D2FC02C085E639
:1006700001C085E4962FFD01819367FF07C08DE2DD
:1006800011968C93DF01119691950AC0662329F487
:1006900054FF03C0DF018DE202C0DF018BE28D93C6
:1006A00080E302C08F5F9A509A30E4F7FD01819396
:1006B000905D11969C931182C701CDB7DEB7E7E03C
:1006C000A5C1283008F027E03327DA01990F311D42
:1006D00087FD916000966105710539F432602E5FE7
:1006E0003D9330E32A95E1F708959F3F30F080383D
:1006F0007105610509F03C5F3C5F3D93913008F066
:100700008068911DDF93CF931F930F93FF92EF9219
:10071000192F987F9695E92F96959695E90FFF27C3
:10072000E057FF4F99273327EE24FF24A701E70165
:1007300005900894079428F4360FE71EF81E491F09
:10074000511D660F771F881F991F0694A1F705900A
:10075000079428F4E70EF81E491F561FC11D770F96
:10076000881F991F661F0694A1F70590079428F427
:10077000F80E491F561FC71FD11D880F991F661FEE
:10078000771F0694A1F70590079420F4490F561F90
:10079000C71FD81F990F661F771F881F0694A9F7D8
:1007A00084911095177041F0D695C7955795479548
:1007B000F794E7941A95C1F7E6E3F0E06894159092
:1007C000159135916591959105907FE27395E118AA
:1007D000F10A430B560BC90BD009C0F7E10CF11E0F
:1007E000431F561FC91FD01D7EF4703311F48A9524
:1007F000E6CFE894015030F0080F0AF40027021702
:1008000008F4202F2395022F7A3328F079E37D9383
:100810002A95E9F710C07D932A9589F60694979555
:100820006795379517951794E118F10A430B560B06
:10083000C90BD00998F023957E9173957A3308F00F
:1008400070E37C932013B8F77E9170617D9330F054
:10085000839571E37D9370E32A95E1F71124EF907E
:10086000FF900F911F91CF91DF91992787FD909570
:100870000895FB01DC0105900D920020E1F7089539
:10088000FB019F01E8944230BCF04532ACF44A30A1
:1008900029F497FB1EF4909581959F4F642F77273D
:1008A0007AD0805D8A330CF0895D8193CB0100970B
:1008B000A9F716F45DE251931082C90100C0DC0172
:1008C000FC01672F71917723E1F7329704C07C9187
:1008D0006D9370836291AE17BF07C8F30895629F4E
:1008E000D001739FF001829FE00DF11D649FE00D28
:1008F000F11D929FF00D839FF00D749FF00D659F89
:10090000F00D9927729FB00DE11DF91F639FB00D87
:10091000E11DF91FBD01CF011124089597FB092E98
:1009200005260ED057FD04D014D00AD0001C38F490
:1009300050954095309521953F4F4F4F5F4F08950B
:10094000F6F790958095709561957F4F8F4F9F4FEB
:100950000895A1E21A2EAA1BBB1BFD010DC0AA1F00
:10096000BB1FEE1FFF1FA217B307E407F50720F018
:10097000A21BB30BE40BF50B661F771F881F991F93
:100980001A9469F760957095809590959B01AC01DC
:10099000BD01CF010895AA1BBB1B51E107C0AA1FCF
:1009A000BB1FA617B70710F0A61BB70B881F991F10
:1009B0005A95A9F780959095BC01CD0108952F9285
:1009C0003F924F925F926F927F928F929F92AF92DF
:1009D000BF92CF92DF92EF92FF920F931F93CF932C
:1009E000DF93CDB7DEB7CA1BDB0B0FB6F894DEBFC3
:1009F0000FBECDBF09942A88398848885F846E84E9
:100A00007D848C849B84AA84B984C884DF80EE8032
:100A1000FD800C811B81AA81B981CE0FD11D0FB63B
:100A2000F894DEBF0FBECDBFED010895F894FFCF5F
:100A30004920616D20776F726B696E672E00200010
:00000001FF
