:100000000C94AF000C94CC000C94CC000C94CC005D
:100010000C94CC000C94CC000C94CC000C94CC0030
:100020000C94CC000C94CC000C94CC000C94CC0020
:100030000C94CC000C94CC000C94CC000C94CC0010
:100040000C94CC000C94CC000C94CC000C94CC0000
:100050000C94CC00696E6600494E46006E616E00DD
:100060004E414E0000407A10F35A00A0724E18091B
:100070000010A5D4E80000E87648170000E40B540F
:10008000020000CA9A3B000000E1F50500008096DE
:100090009800000040420F000000A0860100000010
:1000A000102700000000E8030000000064000000CA
:1000B00000000A00000000000100000000002C7693
:1000C000D888DC674F0823DFC1DFAE59E1B1B796AE
:1000D000E5E3E453C63AE651997696E8E6C284260B
:1000E000EB898C9B62ED407C6FFCEFBC9C9F40F2E7
:1000F000BAA56FA5F490055A2AF75C936B6CF96763
:100100006DC11BFCE0E40D47FEF520E6B500D0ED27
:10011000902E0300943577050080841E080000208F
:100120004E0A000000C80C333333330F986E12832D
:100130001141EF8D2114893BE65516CFFEE6DB1801
:10014000D1844B381BF77C1D901DA4BBE4242032C6
:1001500084725E228100C9F124ECA1E53D271124BF
:100160001FBECFE5D8E0DEBFCDBF11E0A0E6B0E016
:10017000ECE0FDE002C005900D92A036B107D9F782
:1001800011E0A0E6B1E001C01D92AB3EB107E1F77E
:100190000E9402030C9484060C9400002AEF30E0C5
:1001A00004C0F9013197F1F701970097D1F708954D
:1001B000DA9A20916301309164014AEF50E005C062
:1001C000CA010197F1F72150304021153105C1F7DF
:1001D000DA98E091E701F091E801E955FE4F80815E
:1001E000992787FD9095880F991F80830895DA9A43
:1001F00080916301909164019C01220F331F280FAD
:10020000391F4AEF50E005C0CA010197F1F72150AC
:10021000304021153105C1F7DA98E091E701F091FE
:10022000E801E955FE4F8081992787FD9095880F59
:10023000991F808308958091630190916401880FD4
:10024000991F2AEF30E004C0F9013197F1F70197C7
:100250000097D1F78091E7019091E8010196909382
:10026000E8018093E7010895809163019091640112
:10027000880F991F880F991F2AEF30E004C0F901F9
:100280003197F1F701970097D1F78091E7019091AD
:10029000E80101969093E8018093E70108954F9259
:1002A0005F926F927F928F929F92AF92BF92CF9206
:1002B000DF92EF92FF920F931F93CF93DF935B0137
:1002C0006C01EA0197FF02C08DE28993A114B10489
:1002D000C104D10419F480E3899341C0F1E06F2E89
:1002E000712C44245524E12CEAECFE2EEAE90E2F71
:1002F000EBE31E2FC601B501A80197010E94FC0582
:1003000049011216130674F4B901882777FD809508
:10031000982FA80197010E94DD05A61AB70AC80AFE
:10032000D90A03C04114510431F0882D805D8993AE
:1003300071E0472E512C0894611C711C8BE06816EB
:10034000710469F0C801B7012AE030E040E050E0F4
:100350000E94FC05C901DA017C018D01CBCF188216
:10036000DF91CF911F910F91FF90EF90DF90CF9091
:10037000BF90AF909F908F907F906F905F904F90C5
:100380000895282F80EF81BB8FE182BB0000000021
:10039000969A0000000080B3969800000000969A9C
:1003A00000000000969882EE94E00197F1F70000BB
:1003B000000012BA8FEF81BB822F82958F709091CF
:1003C0006201911180620000000082BB969A0000D9
:1003D00000009698822F8F709111806200000000BB
:1003E00082BB969A000000009698089510926201D0
:1003F0000E94C101089512BA8FEF81BB84ED90E392
:100400000197F1F783E082BB22EE34E0F9013197E6
:10041000F1F782BBF9013197F1F782BBC90101976E
:10042000F1F782E082BBC9010197F1F788E20E94EF
:10043000F60188E00E94F6018CE00E94F60181E05E
:100440000E94F60186E00E94F60108951F93CF9363
:10045000DF93EC016130710519F4842F805802C0DC
:10046000842F80540E94F60111E005C0219610935C
:1004700062010E94C10188818823C1F7DF91CF9179
:100480001F910895CF92DF92EF92FF920F931F93E7
:10049000DF93CF93CDB7DEB72F970FB6F894DEBFBB
:1004A0000FBECDBF6A0179018E010F5F1F4FA801FA
:1004B0000E944F01A701B601C8010E9426022F9693
:1004C0000FB6F894DEBF0FBECDBFCF91DF911F9165
:1004D0000F91FF90EF90DF90CF9008950F931F93AF
:1004E000CF93DF93EB018770880F880F880F805CB4
:1004F0000E94F60110E001E08991009362010E94E0
:10050000C1011F5F1830C1F7DF91CF911F910F918B
:1005100008954091A5015091A601E091E301F09169
:10052000E401642F8091E9019091EA01E959FE4FBD
:1005300002C06083C9019C012F5F3F4F4A305105C3
:10054000C1F79093EA018093E90180E00895CF928A
:10055000DF92EF92FF920F931F93CF93DF93C090A0
:10056000E901D090EA014091E5015091E60197E65A
:10057000E92E91E0F92E07EA11E060E070E020E05A
:1005800030E080E090E016C0F70181917F01482FB4
:10059000552747FD50954A505040FA01EE0FFF1F76
:1005A000E056FF4F8081F80181938F016F5F7F4F8D
:1005B0009E01CD01E9012196DC0111966C157D05A6
:1005C00018F39093E8018093E7015093E60140937C
:1005D000E5013093E4012093E3017093610160939E
:1005E000600180E090E0DF91CF911F910F91FF902B
:1005F000EF90DF90CF90089580E090E0089580E044
:1006000090E00895FF920F931F93CF93DF930E9482
:10061000FB011092A4011092A301CAEFD0E022C006
:1006200040E050E061E070E080E690E00E94260249
:100630008CEB92E0FE013197F1F70197D9F781E059
:100640000E94F6018CEB92E0FE013197F1F70197E1
:10065000D9F78091A3019091A40101969093A401F0
:100660008093A3018091A3019091A4010297C0F20D
:100670004091A5015091A601E091E301F091E401C0
:10068000642F8091E9019091EA01E959FE4F02C07F
:100690006083C9019C012F5F3F4F4A305105C1F76C
:1006A0009093EA018093E90181E00E94F60140E025
:1006B00050E061E070E081E790E00E9426020E9435
:1006C000A7028AE992E09093A6018093A50180E2B7
:1006D00093E02AEF30E0F9013197F1F70197D9F76C
:1006E00081E00E94F60141E050E061E070E080E8C6
:1006F00090E00E94260240E050E062E070E08FE867
:1007000090E00E9426028091A5019091A6010A978F
:1007100061F01092A6011092A50180E090E0DF91B7
:10072000CF911F910F91FF9008951092EA011092BE
:10073000E90160916301709164018B01000F111F49
:10074000000F111F4091E7015091E801CB01880F84
:10075000991F860F971FF82EB92FCAEFD0E0FA0124
:10076000E955FE4F8081882351F4C80104C0FE0181
:100770003197F1F701970097D1F74F5F5F4FFA017B
:10078000E955FE4FA081A7FF0EC0DA9A8F2D9B2F4F
:100790009C0105C0CE010197F1F721503040211591
:1007A0003105C1F709C0DA9ACB0104C0FE013197C7
:1007B000F1F701970097D1F7DA98FA01E955FE4F62
:1007C0008A2F992787FD9095880F991F8083C7CF1F
:1007D000AF92BF92CF92DF92EF92FF920F93DF938F
:1007E000CF93CDB7DEB72F970FB6F894DEBF0FBE0D
:1007F000CDBF5A01690103E024E07E010894E11CA9
:10080000F11CA7010E944704A601B501C7010E947F
:1008100026022F960FB6F894DEBF0FBECDBFCF9144
:10082000DF910F91FF90EF90DF90CF90BF90AF904E
:100830000895CF92DF92EF92FF920F931F93DF9371
:10084000CF93CDB7DEB72F970FB6F894DEBF0FBEAC
:10085000CDBF6B017A014AE050E08E010F5F1F4F60
:10086000B8010E94AC05A701B601C8010E9426028A
:100870002F960FB6F894DEBF0FBECDBFCF91DF919C
:100880001F910F91FF90EF90DF90CF900895A0E01F
:10089000B0E0EDE4F4E00C9458067A01D02E122F6B
:1008A000283008F017E000E0212FA7010E94CD04B6
:1008B000682FF7015191252F50FF04C053FD02C04E
:1008C0008DE209C0D1FE02C08BE205C0D0FC02C09F
:1008D000C70104C080E2D7018C93CF01482F392F84
:1008E00023FF03C06CE570E004C022FF0BC064E589
:1008F00070E0D2FE02C06C5F7F4F842F932F0E9466
:10090000A50545C0F7012181DC012D93213309F0B4
:100910005F7E1123A9F0E701842F932FFC01912F13
:100920002EE28A812183915021963196282F992396
:10093000C1F71150812F90E00196A80FB91F2D9398
:10094000D2FC02C085E601C085E4962FFD018193AB
:1009500067FF07C08DE211968C93DF011196919588
:100960000AC0662329F454FF03C0DF018DE202C0F0
:10097000DF018BE28D9380E302C08F5F9A509A3043
:10098000E4F7FD018193905D11969C931182C7015C
:10099000CDB7DEB7E7E00C947406283008F027E006
:1009A0003327DA01990F311D87FD916000966105AB
:1009B000710539F432602E5F3D9330E32A95E1F7FB
:1009C00008959F3F30F080387105610509F03C5F64
:1009D0003C5F3D93913008F08068911DDF93CF9389
:1009E0001F930F93FF92EF92192F987F9695E92FFF
:1009F00096959695E90FFF27E254FF4F99273327E5
:100A0000EE24FF24A701E70105900894079428F439
:100A1000360FE71EF81E491F511D660F771F881FEE
:100A2000991F0694A1F70590079428F4E70EF81E85
:100A3000491F561FC11D770F881F991F661F0694F7
:100A4000A1F70590079428F4F80E491F561FC71FF9
:100A5000D11D880F991F661F771F0694A1F7059077
:100A6000079420F4490F561FC71FD81F990F661F00
:100A7000771F881F0694A9F784911095177041F08D
:100A8000D695C79557954795F794E7941A95C1F76A
:100A9000E4E6F0E068941590159135916591959193
:100AA00005907FE27395E118F10A430B560BC90BD1
:100AB000D009C0F7E10CF11E431F561FC91FD01DFE
:100AC0007EF4703311F48A95E6CFE894015030F04B
:100AD000080F0AF40027021708F4202F2395022F8D
:100AE0007A3328F079E37D932A95E9F710C07D9356
:100AF0002A9589F6069497956795379517951794D3
:100B0000E118F10A430B560BC90BD00998F0239555
:100B10007E9173957A3308F070E37C932013B8F7D5
:100B20007E9170617D9330F0839571E37D9370E3E6
:100B30002A95E1F71124EF90FF900F911F91CF912B
:100B4000DF91992787FD90950895FB01DC010590C1
:100B50000D920020E1F70895FB019F01E8944230D7
:100B6000C4F04532B4F44A3029F497FB1EF4909552
:100B700081959F4F642F77270E943906805D8A33C5
:100B80000CF0895D8193CB010097A1F716F45DE22B
:100B900051931082C9010C94CD05DC01FC01672F33
:100BA00071917723E1F7329704C07C916D93708344
:100BB0006291AE17BF07C8F30895629FD001739F7B
:100BC000F001829FE00DF11D649FE00DF11D929FE9
:100BD000F00D839FF00D749FF00D659FF00D992728
:100BE000729FB00DE11DF91F639FB00DE11DF91F4C
:100BF000BD01CF011124089597FB092E05260ED0C3
:100C000057FD04D014D00AD0001C38F450954095FC
:100C1000309521953F4F4F4F5F4F0895F6F79095D0
:100C20008095709561957F4F8F4F9F4F0895A1E2FA
:100C30001A2EAA1BBB1BFD010DC0AA1FBB1FEE1F56
:100C4000FF1FA217B307E407F50720F0A21BB30BA1
:100C5000E40BF50B661F771F881F991F1A9469F71D
:100C600060957095809590959B01AC01BD01CF0179
:100C70000895AA1BBB1B51E107C0AA1FBB1FA617E3
:100C8000B70710F0A61BB70B881F991F5A95A9F735
:100C900080959095BC01CD0108952F923F924F927F
:100CA0005F926F927F928F929F92AF92BF92CF92FC
:100CB000DF92EF92FF920F931F93CF93DF93CDB705
:100CC000DEB7CA1BDB0B0FB6F894DEBF0FBECDBF7D
:100CD00009942A88398848885F846E847D848C844E
:100CE0009B84AA84B984C884DF80EE80FD800C8157
:100CF0001B81AA81B981CE0FD11D0FB6F894DEBF3A
:0C0D00000FBECDBFED010895F894FFCFA9
:100D0C002A2A2A2A2A5245414459212A2A2A2A2A9D
:100D1C0000202050726F63657373696E672E2E000E
:100D2C00507265737320656E74657220746F0074F5
:100D3C0072616E736D697420636F6465732E2E001F
:100D4C000000AE00000000000000000044000000A5
:100D5C000000000000000000CE00860056000000DD
:100D6C00FC007C003C001C000C0004008400C4004F
:100D7C00E400F400E200000054000000AC0032007B
:100D8C00000060001800A800900040002800D0006F
:100D9C00080020007800B0004800E000A000F0003F
:100DAC006800D80050001000C0003000180070001F
:100DBC009800B800C800000000000000000000000F
:100DCC00000060001800A800900040002800D0002F
:100DDC00080020007800B0004800E000A000F000FF
:100DEC006800D80050001000C000300018007000DF
:100DFC009800B800C80000000000000000000000CF
:00000001FF
