:1000000012C02CC02BC02AC029C028C027C026C0BF
:1000100025C024C023C022C021C020C01FC01EC0D4
:100020001DC01CC01BC011241FBECFE5D4E0DEBF25
:10003000CDBF10E0A0E6B0E0ECE9F1E002C0059031
:100040000D92AE37B107D9F710E0AEE7B0E001C0CE
:100050001D92AE37B107E1F74DD09EC0D1CF8AB126
:1000600088618AB980B5866880BD89E189B910BC8C
:1000700008955D9BFECF8CB908955F9BFECF8CB138
:100080000895FC0104C05D9BFECF8CB93196808140
:100090008823C9F70895DF93CF93CDB7DEB7609774
:1000A0000FB6F894DEBF0FBECDBF982FDE011196BC
:1000B000EEE6F0E080E101900D928150E1F7892FAA
:1000C00082958F70FE01E80FF11D81815D9BFECF4F
:1000D0008CB99F70FE01E90FF11D81815D9BFECF00
:1000E0008CB960960FB6F894DEBF0FBECDBFCF912E
:1000F000DF910895FF920F931F93DF93CF93CDB7B6
:10010000DEB72E970FB6F894DEBF0FBECDBFDE016F
:100110001196E0E6F0E08EE001900D928150E1F75B
:100120008AB188618AB980B5866880BD89E189B95C
:1001300010BC88EA91E6FC013197F1F7FC01319798
:10014000F1F7FC013197F1F70197F1F7FE0103C0D8
:100150005D9BFECF8CB9319680818823C9F75D9B6A
:10016000FECF8DE08CB95D9BFECF8AE08CB980E23A
:10017000F82E0DE01AE05F9BFECF8CB15D9BFECFA9
:100180008CB95D9BFECFFCB886DF5D9BFECF0CB9C2
:0C0190005D9BFECF1CB9EFCFF894FFCFB1
:10019C004920616D20776F726B696E672E0030316C
:0E01AC00323334353637383941424344454604
:00000001FF
